{
  "_format": "hh-sol-artifact-1",
  "contractName": "WebaverseNFT",
  "sourceName": "contracts/WebaverseNFT.sol",
  "abi": [
    {
      "inputs": [],
      "stateMutability": "nonpayable",
      "type": "constructor"
    },
    {
      "anonymous": false,
      "inputs": [
        {
          "indexed": true,
          "internalType": "address",
          "name": "owner",
          "type": "address"
        },
        {
          "indexed": true,
          "internalType": "address",
          "name": "approved",
          "type": "address"
        },
        {
          "indexed": true,
          "internalType": "uint256",
          "name": "tokenId",
          "type": "uint256"
        }
      ],
      "name": "Approval",
      "type": "event"
    },
    {
      "anonymous": false,
      "inputs": [
        {
          "indexed": true,
          "internalType": "address",
          "name": "owner",
          "type": "address"
        },
        {
          "indexed": true,
          "internalType": "address",
          "name": "operator",
          "type": "address"
        },
        {
          "indexed": false,
          "internalType": "bool",
          "name": "approved",
          "type": "bool"
        }
      ],
      "name": "ApprovalForAll",
      "type": "event"
    },
    {
      "anonymous": false,
      "inputs": [
        {
          "indexed": true,
          "internalType": "address",
          "name": "from",
          "type": "address"
        },
        {
          "indexed": true,
          "internalType": "address",
          "name": "to",
          "type": "address"
        },
        {
          "indexed": true,
          "internalType": "uint256",
          "name": "tokenId",
          "type": "uint256"
        }
      ],
      "name": "Transfer",
      "type": "event"
    },
    {
      "inputs": [
        {
          "internalType": "address",
          "name": "to",
          "type": "address"
        },
        {
          "internalType": "uint256",
          "name": "tokenId",
          "type": "uint256"
        }
      ],
      "name": "approve",
      "outputs": [],
      "stateMutability": "nonpayable",
      "type": "function"
    },
    {
      "inputs": [
        {
          "internalType": "address",
          "name": "owner",
          "type": "address"
        }
      ],
      "name": "balanceOf",
      "outputs": [
        {
          "internalType": "uint256",
          "name": "",
          "type": "uint256"
        }
      ],
      "stateMutability": "view",
      "type": "function"
    },
    {
      "inputs": [
        {
          "internalType": "address",
          "name": "claimer",
          "type": "address"
        },
        {
          "components": [
            {
              "internalType": "uint256",
              "name": "tokenId",
              "type": "uint256"
            },
            {
              "internalType": "uint256",
              "name": "nonce",
              "type": "uint256"
            },
            {
              "internalType": "uint256",
              "name": "expiry",
              "type": "uint256"
            },
            {
              "internalType": "bytes",
              "name": "signature",
              "type": "bytes"
            }
          ],
          "internalType": "struct WebaverseNFT.NFTVoucher",
          "name": "voucher",
          "type": "tuple"
        }
      ],
      "name": "claim",
      "outputs": [
        {
          "internalType": "uint256",
          "name": "",
          "type": "uint256"
        }
      ],
      "stateMutability": "nonpayable",
      "type": "function"
    },
    {
      "inputs": [
        {
          "internalType": "uint256",
          "name": "tokenId",
          "type": "uint256"
        }
      ],
      "name": "getApproved",
      "outputs": [
        {
          "internalType": "address",
          "name": "",
          "type": "address"
        }
      ],
      "stateMutability": "view",
      "type": "function"
    },
    {
      "inputs": [],
      "name": "getChainID",
      "outputs": [
        {
          "internalType": "uint256",
          "name": "",
          "type": "uint256"
        }
      ],
      "stateMutability": "view",
      "type": "function"
    },
    {
      "inputs": [
        {
          "internalType": "address",
          "name": "owner",
          "type": "address"
        },
        {
          "internalType": "address",
          "name": "operator",
          "type": "address"
        }
      ],
      "name": "isApprovedForAll",
      "outputs": [
        {
          "internalType": "bool",
          "name": "",
          "type": "bool"
        }
      ],
      "stateMutability": "view",
      "type": "function"
    },
    {
      "inputs": [
        {
          "internalType": "address",
          "name": "account",
          "type": "address"
        },
        {
          "internalType": "uint256",
          "name": "tokenId",
          "type": "uint256"
        },
        {
          "internalType": "string",
          "name": "uri",
          "type": "string"
        }
      ],
      "name": "mint",
      "outputs": [],
      "stateMutability": "nonpayable",
      "type": "function"
    },
    {
      "inputs": [],
      "name": "name",
      "outputs": [
        {
          "internalType": "string",
          "name": "",
          "type": "string"
        }
      ],
      "stateMutability": "view",
      "type": "function"
    },
    {
      "inputs": [
        {
          "internalType": "address",
          "name": "",
          "type": "address"
        }
      ],
      "name": "nonces",
      "outputs": [
        {
          "internalType": "uint256",
          "name": "",
          "type": "uint256"
        }
      ],
      "stateMutability": "view",
      "type": "function"
    },
    {
      "inputs": [
        {
          "internalType": "uint256",
          "name": "tokenId",
          "type": "uint256"
        }
      ],
      "name": "ownerOf",
      "outputs": [
        {
          "internalType": "address",
          "name": "",
          "type": "address"
        }
      ],
      "stateMutability": "view",
      "type": "function"
    },
    {
      "inputs": [
        {
          "internalType": "address",
          "name": "from",
          "type": "address"
        },
        {
          "internalType": "address",
          "name": "to",
          "type": "address"
        },
        {
          "internalType": "uint256",
          "name": "tokenId",
          "type": "uint256"
        }
      ],
      "name": "safeTransferFrom",
      "outputs": [],
      "stateMutability": "nonpayable",
      "type": "function"
    },
    {
      "inputs": [
        {
          "internalType": "address",
          "name": "from",
          "type": "address"
        },
        {
          "internalType": "address",
          "name": "to",
          "type": "address"
        },
        {
          "internalType": "uint256",
          "name": "tokenId",
          "type": "uint256"
        },
        {
          "internalType": "bytes",
          "name": "_data",
          "type": "bytes"
        }
      ],
      "name": "safeTransferFrom",
      "outputs": [],
      "stateMutability": "nonpayable",
      "type": "function"
    },
    {
      "inputs": [
        {
          "internalType": "address",
          "name": "operator",
          "type": "address"
        },
        {
          "internalType": "bool",
          "name": "approved",
          "type": "bool"
        }
      ],
      "name": "setApprovalForAll",
      "outputs": [],
      "stateMutability": "nonpayable",
      "type": "function"
    },
    {
      "inputs": [
        {
          "internalType": "bytes4",
          "name": "interfaceId",
          "type": "bytes4"
        }
      ],
      "name": "supportsInterface",
      "outputs": [
        {
          "internalType": "bool",
          "name": "",
          "type": "bool"
        }
      ],
      "stateMutability": "view",
      "type": "function"
    },
    {
      "inputs": [],
      "name": "symbol",
      "outputs": [
        {
          "internalType": "string",
          "name": "",
          "type": "string"
        }
      ],
      "stateMutability": "view",
      "type": "function"
    },
    {
      "inputs": [
        {
          "internalType": "uint256",
          "name": "tokenId",
          "type": "uint256"
        }
      ],
      "name": "tokenURI",
      "outputs": [
        {
          "internalType": "string",
          "name": "",
          "type": "string"
        }
      ],
      "stateMutability": "view",
      "type": "function"
    },
    {
      "inputs": [
        {
          "internalType": "address",
          "name": "from",
          "type": "address"
        },
        {
          "internalType": "address",
          "name": "to",
          "type": "address"
        },
        {
          "internalType": "uint256",
          "name": "tokenId",
          "type": "uint256"
        }
      ],
      "name": "transferFrom",
      "outputs": [],
      "stateMutability": "nonpayable",
      "type": "function"
    }
  ],
  "bytecode": "0x6101206040523480156200001257600080fd5b506040518060400160405280601181526020017f5765626176657273652d766f75636865720000000000000000000000000000008152506040518060400160405280600181526020017f31000000000000000000000000000000000000000000000000000000000000008152506040518060400160405280600c81526020017f5765626176657273654e465400000000000000000000000000000000000000008152506040518060400160405280600481526020017f5756525300000000000000000000000000000000000000000000000000000000815250816000908051906020019062000103929190620001de565b5080600190805190602001906200011c929190620001de565b50505060008280519060200120905060008280519060200120905060007f8b73c3c69bb8fe3d512ecc4cf759cc79239f7b179b0ffacaa9a75d522b39400f90508260c081815250508160e081815250504660a0818152505062000187818484620001a260201b60201c565b608081815250508061010081815250505050505050620003cb565b60008383834630604051602001620001bf959493929190620002c1565b6040516020818303038152906040528051906020012090509392505050565b828054620001ec9062000366565b90600052602060002090601f0160209004810192826200021057600085556200025c565b82601f106200022b57805160ff19168380011785556200025c565b828001600101855582156200025c579182015b828111156200025b5782518255916020019190600101906200023e565b5b5090506200026b91906200026f565b5090565b5b808211156200028a57600081600090555060010162000270565b5090565b62000299816200031e565b82525050565b620002aa8162000332565b82525050565b620002bb816200035c565b82525050565b600060a082019050620002d860008301886200029f565b620002e760208301876200029f565b620002f660408301866200029f565b620003056060830185620002b0565b6200031460808301846200028e565b9695505050505050565b60006200032b826200033c565b9050919050565b6000819050919050565b600073ffffffffffffffffffffffffffffffffffffffff82169050919050565b6000819050919050565b600060028204905060018216806200037f57607f821691505b602082108114156200039657620003956200039c565b5b50919050565b7f4e487b7100000000000000000000000000000000000000000000000000000000600052602260045260246000fd5b60805160a05160c05160e05161010051613785620004106000396000611e0e01526000611e5001526000611e2f01526000611dbb01526000611de301526137856000f3fe608060405234801561001057600080fd5b506004361061010b5760003560e01c80636eb26346116100a2578063a22cb46511610071578063a22cb465146102de578063b88d4fde146102fa578063c87b56dd14610316578063d3fc986414610346578063e985e9c5146103625761010b565b80636eb263461461023057806370a08231146102605780637ecebe001461029057806395d89b41146102c05761010b565b806323b872dd116100de57806323b872dd146101aa57806342842e0e146101c6578063564b81ef146101e25780636352211e146102005761010b565b806301ffc9a71461011057806306fdde0314610140578063081812fc1461015e578063095ea7b31461018e575b600080fd5b61012a6004803603810190610125919061249b565b610392565b6040516101379190612f42565b60405180910390f35b6101486103a4565b604051610155919061303a565b60405180910390f35b610178600480360381019061017391906124ed565b610436565b6040516101859190612edb565b60405180910390f35b6101a860048036038101906101a391906123f8565b6104bb565b005b6101c460048036038101906101bf919061229e565b6105d3565b005b6101e060048036038101906101db919061229e565b610633565b005b6101ea610653565b6040516101f7919061337c565b60405180910390f35b61021a600480360381019061021591906124ed565b610660565b6040516102279190612edb565b60405180910390f35b61024a600480360381019061024591906123a4565b610712565b604051610257919061337c565b60405180910390f35b61027a60048036038101906102759190612239565b6108da565b604051610287919061337c565b60405180910390f35b6102aa60048036038101906102a59190612239565b610992565b6040516102b7919061337c565b60405180910390f35b6102c86109aa565b6040516102d5919061303a565b60405180910390f35b6102f860048036038101906102f39190612368565b610a3c565b005b610314600480360381019061030f91906122ed565b610bbd565b005b610330600480360381019061032b91906124ed565b610c1f565b60405161033d919061303a565b60405180910390f35b610360600480360381019061035b9190612434565b610d6e565b005b61037c60048036038101906103779190612262565b610dd0565b6040516103899190612f42565b60405180910390f35b600061039d82610e64565b9050919050565b6060600080546103b390613619565b80601f01602080910402602001604051908101604052809291908181526020018280546103df90613619565b801561042c5780601f106104015761010080835404028352916020019161042c565b820191906000526020600020905b81548152906001019060200180831161040f57829003601f168201915b5050505050905090565b600061044182610f46565b610480576040517f08c379a0000000000000000000000000000000000000000000000000000000008152600401610477906132bc565b60405180910390fd5b6004600083815260200190815260200160002060009054906101000a900473ffffffffffffffffffffffffffffffffffffffff169050919050565b60006104c682610660565b90508073ffffffffffffffffffffffffffffffffffffffff168373ffffffffffffffffffffffffffffffffffffffff161415610537576040517f08c379a000000000000000000000000000000000000000000000000000000000815260040161052e9061331c565b60405180910390fd5b8073ffffffffffffffffffffffffffffffffffffffff16610556610fb2565b73ffffffffffffffffffffffffffffffffffffffff16148061058557506105848161057f610fb2565b610dd0565b5b6105c4576040517f08c379a00000000000000000000000000000000000000000000000000000000081526004016105bb906131fc565b60405180910390fd5b6105ce8383610fba565b505050565b6105e46105de610fb2565b82611073565b610623576040517f08c379a000000000000000000000000000000000000000000000000000000000815260040161061a9061335c565b60405180910390fd5b61062e838383611151565b505050565b61064e83838360405180602001604052806000815250610bbd565b505050565b6000804690508091505090565b6000806002600084815260200190815260200160002060009054906101000a900473ffffffffffffffffffffffffffffffffffffffff169050600073ffffffffffffffffffffffffffffffffffffffff168173ffffffffffffffffffffffffffffffffffffffff161415610709576040517f08c379a00000000000000000000000000000000000000000000000000000000081526004016107009061325c565b60405180910390fd5b80915050919050565b60008061071e836113ad565b905061072d8360000135610660565b73ffffffffffffffffffffffffffffffffffffffff168173ffffffffffffffffffffffffffffffffffffffff161461079a576040517f08c379a00000000000000000000000000000000000000000000000000000000081526004016107919061333c565b60405180910390fd5b82604001354211156107e1576040517f08c379a00000000000000000000000000000000000000000000000000000000081526004016107d8906130bc565b60405180910390fd5b600760008273ffffffffffffffffffffffffffffffffffffffff1673ffffffffffffffffffffffffffffffffffffffff16815260200190815260200160002054836020013514610866576040517f08c379a000000000000000000000000000000000000000000000000000000000815260040161085d906131dc565b60405180910390fd5b61087581858560000135611151565b6001600760008373ffffffffffffffffffffffffffffffffffffffff1673ffffffffffffffffffffffffffffffffffffffff16815260200190815260200160002060008282546108c591906134c2565b92505081905550826000013591505092915050565b60008073ffffffffffffffffffffffffffffffffffffffff168273ffffffffffffffffffffffffffffffffffffffff16141561094b576040517f08c379a00000000000000000000000000000000000000000000000000000000081526004016109429061323c565b60405180910390fd5b600360008373ffffffffffffffffffffffffffffffffffffffff1673ffffffffffffffffffffffffffffffffffffffff168152602001908152602001600020549050919050565b60076020528060005260406000206000915090505481565b6060600180546109b990613619565b80601f01602080910402602001604051908101604052809291908181526020018280546109e590613619565b8015610a325780601f10610a0757610100808354040283529160200191610a32565b820191906000526020600020905b815481529060010190602001808311610a1557829003601f168201915b5050505050905090565b610a44610fb2565b73ffffffffffffffffffffffffffffffffffffffff168273ffffffffffffffffffffffffffffffffffffffff161415610ab2576040517f08c379a0000000000000000000000000000000000000000000000000000000008152600401610aa99061313c565b60405180910390fd5b8060056000610abf610fb2565b73ffffffffffffffffffffffffffffffffffffffff1673ffffffffffffffffffffffffffffffffffffffff16815260200190815260200160002060008473ffffffffffffffffffffffffffffffffffffffff1673ffffffffffffffffffffffffffffffffffffffff16815260200190815260200160002060006101000a81548160ff0219169083151502179055508173ffffffffffffffffffffffffffffffffffffffff16610b6c610fb2565b73ffffffffffffffffffffffffffffffffffffffff167f17307eab39ab6107e8899845ad3d59bd9653f200f220920489ca2b5937696c3183604051610bb19190612f42565b60405180910390a35050565b610bce610bc8610fb2565b83611073565b610c0d576040517f08c379a0000000000000000000000000000000000000000000000000000000008152600401610c049061335c565b60405180910390fd5b610c198484848461141f565b50505050565b6060610c2a82610f46565b610c69576040517f08c379a0000000000000000000000000000000000000000000000000000000008152600401610c60906132dc565b60405180910390fd5b6000600860008481526020019081526020016000208054610c8990613619565b905011610ccb576040517f08c379a0000000000000000000000000000000000000000000000000000000008152600401610cc29061315c565b60405180910390fd5b600860008381526020019081526020016000208054610ce990613619565b80601f0160208091040260200160405190810160405280929190818152602001828054610d1590613619565b8015610d625780601f10610d3757610100808354040283529160200191610d62565b820191906000526020600020905b815481529060010190602001808311610d4557829003601f168201915b50505050509050919050565b610d7782610f46565b15610db7576040517f08c379a0000000000000000000000000000000000000000000000000000000008152600401610dae9061321c565b60405180910390fd5b610dc1838361147b565b610dcb8282611649565b505050565b6000600560008473ffffffffffffffffffffffffffffffffffffffff1673ffffffffffffffffffffffffffffffffffffffff16815260200190815260200160002060008373ffffffffffffffffffffffffffffffffffffffff1673ffffffffffffffffffffffffffffffffffffffff16815260200190815260200160002060009054906101000a900460ff16905092915050565b60007f80ac58cd000000000000000000000000000000000000000000000000000000007bffffffffffffffffffffffffffffffffffffffffffffffffffffffff1916827bffffffffffffffffffffffffffffffffffffffffffffffffffffffff19161480610f2f57507f5b5e139f000000000000000000000000000000000000000000000000000000007bffffffffffffffffffffffffffffffffffffffffffffffffffffffff1916827bffffffffffffffffffffffffffffffffffffffffffffffffffffffff1916145b80610f3f5750610f3e8261171f565b5b9050919050565b60008073ffffffffffffffffffffffffffffffffffffffff166002600084815260200190815260200160002060009054906101000a900473ffffffffffffffffffffffffffffffffffffffff1673ffffffffffffffffffffffffffffffffffffffff1614159050919050565b600033905090565b816004600083815260200190815260200160002060006101000a81548173ffffffffffffffffffffffffffffffffffffffff021916908373ffffffffffffffffffffffffffffffffffffffff160217905550808273ffffffffffffffffffffffffffffffffffffffff1661102d83610660565b73ffffffffffffffffffffffffffffffffffffffff167f8c5be1e5ebec7d5bd14f71427d1e84f3dd0314c0f7b2291e5b200ac8c7c3b92560405160405180910390a45050565b600061107e82610f46565b6110bd576040517f08c379a00000000000000000000000000000000000000000000000000000000081526004016110b49061319c565b60405180910390fd5b60006110c883610660565b90508073ffffffffffffffffffffffffffffffffffffffff168473ffffffffffffffffffffffffffffffffffffffff16148061113757508373ffffffffffffffffffffffffffffffffffffffff1661111f84610436565b73ffffffffffffffffffffffffffffffffffffffff16145b8061114857506111478185610dd0565b5b91505092915050565b8273ffffffffffffffffffffffffffffffffffffffff1661117182610660565b73ffffffffffffffffffffffffffffffffffffffff16146111c7576040517f08c379a00000000000000000000000000000000000000000000000000000000081526004016111be906132fc565b60405180910390fd5b600073ffffffffffffffffffffffffffffffffffffffff168273ffffffffffffffffffffffffffffffffffffffff161415611237576040517f08c379a000000000000000000000000000000000000000000000000000000000815260040161122e9061311c565b60405180910390fd5b611242838383611789565b61124d600082610fba565b6001600360008573ffffffffffffffffffffffffffffffffffffffff1673ffffffffffffffffffffffffffffffffffffffff168152602001908152602001600020600082825461129d9190613518565b925050819055506001600360008473ffffffffffffffffffffffffffffffffffffffff1673ffffffffffffffffffffffffffffffffffffffff16815260200190815260200160002060008282546112f491906134c2565b92505081905550816002600083815260200190815260200160002060006101000a81548173ffffffffffffffffffffffffffffffffffffffff021916908373ffffffffffffffffffffffffffffffffffffffff160217905550808273ffffffffffffffffffffffffffffffffffffffff168473ffffffffffffffffffffffffffffffffffffffff167fddf252ad1be2c89b69c2b068fc378daa952ba7f163c4a11628f55a4df523b3ef60405160405180910390a4505050565b6000806113b98361178e565b9050611417818480606001906113cf9190613397565b8080601f016020809104026020016040519081016040528093929190818152602001838380828437600081840152601f19601f820116905080830192505050505050506117f8565b915050919050565b61142a848484611151565b6114368484848461181f565b611475576040517f08c379a000000000000000000000000000000000000000000000000000000000815260040161146c9061309c565b60405180910390fd5b50505050565b600073ffffffffffffffffffffffffffffffffffffffff168273ffffffffffffffffffffffffffffffffffffffff1614156114eb576040517f08c379a00000000000000000000000000000000000000000000000000000000081526004016114e29061329c565b60405180910390fd5b6114f481610f46565b15611534576040517f08c379a000000000000000000000000000000000000000000000000000000000815260040161152b906130dc565b60405180910390fd5b61154060008383611789565b6001600360008473ffffffffffffffffffffffffffffffffffffffff1673ffffffffffffffffffffffffffffffffffffffff168152602001908152602001600020600082825461159091906134c2565b92505081905550816002600083815260200190815260200160002060006101000a81548173ffffffffffffffffffffffffffffffffffffffff021916908373ffffffffffffffffffffffffffffffffffffffff160217905550808273ffffffffffffffffffffffffffffffffffffffff16600073ffffffffffffffffffffffffffffffffffffffff167fddf252ad1be2c89b69c2b068fc378daa952ba7f163c4a11628f55a4df523b3ef60405160405180910390a45050565b61165282610f46565b611691576040517f08c379a0000000000000000000000000000000000000000000000000000000008152600401611688906130fc565b60405180910390fd5b60006008600084815260200190815260200160002080546116b190613619565b9050146116f3576040517f08c379a00000000000000000000000000000000000000000000000000000000081526004016116ea906131bc565b60405180910390fd5b8060086000848152602001908152602001600020908051906020019061171a929190612042565b505050565b60007f01ffc9a7000000000000000000000000000000000000000000000000000000007bffffffffffffffffffffffffffffffffffffffffffffffffffffffff1916827bffffffffffffffffffffffffffffffffffffffffffffffffffffffff1916149050919050565b505050565b60006117f17fa71ded31e2bec61339bad6247783eb9b59b4ad6bc34cbc5a94eadbb2825c47228360000135846020013585604001356040516020016117d69493929190612fb0565b604051602081830303815290604052805190602001206119b6565b9050919050565b600080600061180785856119d0565b9150915061181481611a53565b819250505092915050565b60006118408473ffffffffffffffffffffffffffffffffffffffff16611da4565b156119a9578373ffffffffffffffffffffffffffffffffffffffff1663150b7a02611869610fb2565b8786866040518563ffffffff1660e01b815260040161188b9493929190612ef6565b602060405180830381600087803b1580156118a557600080fd5b505af19250505080156118d657506040513d601f19601f820116820180604052508101906118d391906124c4565b60015b611959573d8060008114611906576040519150601f19603f3d011682016040523d82523d6000602084013e61190b565b606091505b50600081511415611951576040517f08c379a00000000000000000000000000000000000000000000000000000000081526004016119489061309c565b60405180910390fd5b805181602001fd5b63150b7a0260e01b7bffffffffffffffffffffffffffffffffffffffffffffffffffffffff1916817bffffffffffffffffffffffffffffffffffffffffffffffffffffffff1916149150506119ae565b600190505b949350505050565b60006119c96119c3611db7565b83611e7a565b9050919050565b600080604183511415611a125760008060006020860151925060408601519150606086015160001a9050611a0687828585611ead565b94509450505050611a4c565b604083511415611a43576000806020850151915060408501519050611a38868383611fba565b935093505050611a4c565b60006002915091505b9250929050565b60006004811115611a8d577f4e487b7100000000000000000000000000000000000000000000000000000000600052602160045260246000fd5b816004811115611ac6577f4e487b7100000000000000000000000000000000000000000000000000000000600052602160045260246000fd5b1415611ad157611da1565b60016004811115611b0b577f4e487b7100000000000000000000000000000000000000000000000000000000600052602160045260246000fd5b816004811115611b44577f4e487b7100000000000000000000000000000000000000000000000000000000600052602160045260246000fd5b1415611b85576040517f08c379a0000000000000000000000000000000000000000000000000000000008152600401611b7c9061305c565b60405180910390fd5b60026004811115611bbf577f4e487b7100000000000000000000000000000000000000000000000000000000600052602160045260246000fd5b816004811115611bf8577f4e487b7100000000000000000000000000000000000000000000000000000000600052602160045260246000fd5b1415611c39576040517f08c379a0000000000000000000000000000000000000000000000000000000008152600401611c309061307c565b60405180910390fd5b60036004811115611c73577f4e487b7100000000000000000000000000000000000000000000000000000000600052602160045260246000fd5b816004811115611cac577f4e487b7100000000000000000000000000000000000000000000000000000000600052602160045260246000fd5b1415611ced576040517f08c379a0000000000000000000000000000000000000000000000000000000008152600401611ce49061317c565b60405180910390fd5b600480811115611d26577f4e487b7100000000000000000000000000000000000000000000000000000000600052602160045260246000fd5b816004811115611d5f577f4e487b7100000000000000000000000000000000000000000000000000000000600052602160045260246000fd5b1415611da0576040517f08c379a0000000000000000000000000000000000000000000000000000000008152600401611d979061327c565b60405180910390fd5b5b50565b600080823b905060008111915050919050565b60007f0000000000000000000000000000000000000000000000000000000000000000461415611e09577f00000000000000000000000000000000000000000000000000000000000000009050611e77565b611e747f00000000000000000000000000000000000000000000000000000000000000007f00000000000000000000000000000000000000000000000000000000000000007f0000000000000000000000000000000000000000000000000000000000000000612008565b90505b90565b60008282604051602001611e8f929190612ea4565b60405160208183030381529060405280519060200120905092915050565b6000807f7fffffffffffffffffffffffffffffff5d576e7357a4501ddfe92f46681b20a08360001c1115611ee8576000600391509150611fb1565b601b8560ff1614158015611f005750601c8560ff1614155b15611f12576000600491509150611fb1565b600060018787878760405160008152602001604052604051611f379493929190612ff5565b6020604051602081039080840390855afa158015611f59573d6000803e3d6000fd5b505050602060405103519050600073ffffffffffffffffffffffffffffffffffffffff168173ffffffffffffffffffffffffffffffffffffffff161415611fa857600060019250925050611fb1565b80600092509250505b94509492505050565b6000806000807f7fffffffffffffffffffffffffffffffffffffffffffffffffffffffffffffff85169150601b8560ff1c019050611ffa87828885611ead565b935093505050935093915050565b60008383834630604051602001612023959493929190612f5d565b6040516020818303038152906040528051906020012090509392505050565b82805461204e90613619565b90600052602060002090601f01602090048101928261207057600085556120b7565b82601f1061208957805160ff19168380011785556120b7565b828001600101855582156120b7579182015b828111156120b657825182559160200191906001019061209b565b5b5090506120c491906120c8565b5090565b5b808211156120e15760008160009055506001016120c9565b5090565b60006120f86120f38461341f565b6133ee565b90508281526020810184848401111561211057600080fd5b61211b8482856135d7565b509392505050565b60006121366121318461344f565b6133ee565b90508281526020810184848401111561214e57600080fd5b6121598482856135d7565b509392505050565b600081359050612170816136f3565b92915050565b6000813590506121858161370a565b92915050565b60008135905061219a81613721565b92915050565b6000815190506121af81613721565b92915050565b600082601f8301126121c657600080fd5b81356121d68482602086016120e5565b91505092915050565b600082601f8301126121f057600080fd5b8135612200848260208601612123565b91505092915050565b60006080828403121561221b57600080fd5b81905092915050565b60008135905061223381613738565b92915050565b60006020828403121561224b57600080fd5b600061225984828501612161565b91505092915050565b6000806040838503121561227557600080fd5b600061228385828601612161565b925050602061229485828601612161565b9150509250929050565b6000806000606084860312156122b357600080fd5b60006122c186828701612161565b93505060206122d286828701612161565b92505060406122e386828701612224565b9150509250925092565b6000806000806080858703121561230357600080fd5b600061231187828801612161565b945050602061232287828801612161565b935050604061233387828801612224565b925050606085013567ffffffffffffffff81111561235057600080fd5b61235c878288016121b5565b91505092959194509250565b6000806040838503121561237b57600080fd5b600061238985828601612161565b925050602061239a85828601612176565b9150509250929050565b600080604083850312156123b757600080fd5b60006123c585828601612161565b925050602083013567ffffffffffffffff8111156123e257600080fd5b6123ee85828601612209565b9150509250929050565b6000806040838503121561240b57600080fd5b600061241985828601612161565b925050602061242a85828601612224565b9150509250929050565b60008060006060848603121561244957600080fd5b600061245786828701612161565b935050602061246886828701612224565b925050604084013567ffffffffffffffff81111561248557600080fd5b612491868287016121df565b9150509250925092565b6000602082840312156124ad57600080fd5b60006124bb8482850161218b565b91505092915050565b6000602082840312156124d657600080fd5b60006124e4848285016121a0565b91505092915050565b6000602082840312156124ff57600080fd5b600061250d84828501612224565b91505092915050565b61251f8161354c565b82525050565b61252e8161355e565b82525050565b61253d8161356a565b82525050565b61255461254f8261356a565b61364b565b82525050565b60006125658261347f565b61256f8185613495565b935061257f8185602086016135e6565b612588816136e2565b840191505092915050565b600061259e8261348a565b6125a881856134a6565b93506125b88185602086016135e6565b6125c1816136e2565b840191505092915050565b60006125d96018836134a6565b91507f45434453413a20696e76616c6964207369676e617475726500000000000000006000830152602082019050919050565b6000612619601f836134a6565b91507f45434453413a20696e76616c6964207369676e6174757265206c656e677468006000830152602082019050919050565b60006126596032836134a6565b91507f4552433732313a207472616e7366657220746f206e6f6e20455243373231526560008301527f63656976657220696d706c656d656e74657200000000000000000000000000006020830152604082019050919050565b60006126bf601b836134a6565b91507f566f75636865722068617320616c7265616479206578706972656400000000006000830152602082019050919050565b60006126ff601c836134a6565b91507f4552433732313a20746f6b656e20616c7265616479206d696e746564000000006000830152602082019050919050565b600061273f6002836134b7565b91507f19010000000000000000000000000000000000000000000000000000000000006000830152600282019050919050565b600061277f602e836134a6565b91507f53657474696e672055524920666f72206e6f6e2d6578697374656e7420746f6b60008301527f656e206e6f7420616c6c6f7765640000000000000000000000000000000000006020830152604082019050919050565b60006127e56024836134a6565b91507f4552433732313a207472616e7366657220746f20746865207a65726f2061646460008301527f72657373000000000000000000000000000000000000000000000000000000006020830152604082019050919050565b600061284b6019836134a6565b91507f4552433732313a20617070726f766520746f2063616c6c6572000000000000006000830152602082019050919050565b600061288b6023836134a6565b91507f4572726f723a20555249206f66207468697320746f6b656e206973206e6f742060008301527f73657400000000000000000000000000000000000000000000000000000000006020830152604082019050919050565b60006128f16022836134a6565b91507f45434453413a20696e76616c6964207369676e6174757265202773272076616c60008301527f75650000000000000000000000000000000000000000000000000000000000006020830152604082019050919050565b6000612957602c836134a6565b91507f4552433732313a206f70657261746f7220717565727920666f72206e6f6e657860008301527f697374656e7420746f6b656e00000000000000000000000000000000000000006020830152604082019050919050565b60006129bd601f836134a6565b91507f5468697320746f6b656e27732055524920616c726561647920657869737473006000830152602082019050919050565b60006129fd6013836134a6565b91507f496e76616c6964206e6f6e63652076616c7565000000000000000000000000006000830152602082019050919050565b6000612a3d6038836134a6565b91507f4552433732313a20617070726f76652063616c6c6572206973206e6f74206f7760008301527f6e6572206e6f7220617070726f76656420666f7220616c6c00000000000000006020830152604082019050919050565b6000612aa3601b836134a6565b91507f4572726f723a20546f6b656e20616c72656164792065786973747300000000006000830152602082019050919050565b6000612ae3602a836134a6565b91507f4552433732313a2062616c616e636520717565727920666f7220746865207a6560008301527f726f2061646472657373000000000000000000000000000000000000000000006020830152604082019050919050565b6000612b496029836134a6565b91507f4552433732313a206f776e657220717565727920666f72206e6f6e657869737460008301527f656e7420746f6b656e00000000000000000000000000000000000000000000006020830152604082019050919050565b6000612baf6022836134a6565b91507f45434453413a20696e76616c6964207369676e6174757265202776272076616c60008301527f75650000000000000000000000000000000000000000000000000000000000006020830152604082019050919050565b6000612c156020836134a6565b91507f4552433732313a206d696e7420746f20746865207a65726f20616464726573736000830152602082019050919050565b6000612c55602c836134a6565b91507f4552433732313a20617070726f76656420717565727920666f72206e6f6e657860008301527f697374656e7420746f6b656e00000000000000000000000000000000000000006020830152604082019050919050565b6000612cbb601c836134a6565b91507f517565727920666f72206e6f6e206578697374656e7420746f6b656e000000006000830152602082019050919050565b6000612cfb6029836134a6565b91507f4552433732313a207472616e73666572206f6620746f6b656e2074686174206960008301527f73206e6f74206f776e00000000000000000000000000000000000000000000006020830152604082019050919050565b6000612d616021836134a6565b91507f4552433732313a20617070726f76616c20746f2063757272656e74206f776e6560008301527f72000000000000000000000000000000000000000000000000000000000000006020830152604082019050919050565b6000612dc76027836134a6565b91507f417574686f72697a6174696f6e206661696c65643a20496e76616c696420736960008301527f676e6174757265000000000000000000000000000000000000000000000000006020830152604082019050919050565b6000612e2d6031836134a6565b91507f4552433732313a207472616e736665722063616c6c6572206973206e6f74206f60008301527f776e6572206e6f7220617070726f7665640000000000000000000000000000006020830152604082019050919050565b612e8f816135c0565b82525050565b612e9e816135ca565b82525050565b6000612eaf82612732565b9150612ebb8285612543565b602082019150612ecb8284612543565b6020820191508190509392505050565b6000602082019050612ef06000830184612516565b92915050565b6000608082019050612f0b6000830187612516565b612f186020830186612516565b612f256040830185612e86565b8181036060830152612f37818461255a565b905095945050505050565b6000602082019050612f576000830184612525565b92915050565b600060a082019050612f726000830188612534565b612f7f6020830187612534565b612f8c6040830186612534565b612f996060830185612e86565b612fa66080830184612516565b9695505050505050565b6000608082019050612fc56000830187612534565b612fd26020830186612e86565b612fdf6040830185612e86565b612fec6060830184612e86565b95945050505050565b600060808201905061300a6000830187612534565b6130176020830186612e95565b6130246040830185612534565b6130316060830184612534565b95945050505050565b600060208201905081810360008301526130548184612593565b905092915050565b60006020820190508181036000830152613075816125cc565b9050919050565b600060208201905081810360008301526130958161260c565b9050919050565b600060208201905081810360008301526130b58161264c565b9050919050565b600060208201905081810360008301526130d5816126b2565b9050919050565b600060208201905081810360008301526130f5816126f2565b9050919050565b6000602082019050818103600083015261311581612772565b9050919050565b60006020820190508181036000830152613135816127d8565b9050919050565b600060208201905081810360008301526131558161283e565b9050919050565b600060208201905081810360008301526131758161287e565b9050919050565b60006020820190508181036000830152613195816128e4565b9050919050565b600060208201905081810360008301526131b58161294a565b9050919050565b600060208201905081810360008301526131d5816129b0565b9050919050565b600060208201905081810360008301526131f5816129f0565b9050919050565b6000602082019050818103600083015261321581612a30565b9050919050565b6000602082019050818103600083015261323581612a96565b9050919050565b6000602082019050818103600083015261325581612ad6565b9050919050565b6000602082019050818103600083015261327581612b3c565b9050919050565b6000602082019050818103600083015261329581612ba2565b9050919050565b600060208201905081810360008301526132b581612c08565b9050919050565b600060208201905081810360008301526132d581612c48565b9050919050565b600060208201905081810360008301526132f581612cae565b9050919050565b6000602082019050818103600083015261331581612cee565b9050919050565b6000602082019050818103600083015261333581612d54565b9050919050565b6000602082019050818103600083015261335581612dba565b9050919050565b6000602082019050818103600083015261337581612e20565b9050919050565b60006020820190506133916000830184612e86565b92915050565b600080833560016020038436030381126133b057600080fd5b80840192508235915067ffffffffffffffff8211156133ce57600080fd5b6020830192506001820236038313156133e657600080fd5b509250929050565b6000604051905081810181811067ffffffffffffffff82111715613415576134146136b3565b5b8060405250919050565b600067ffffffffffffffff82111561343a576134396136b3565b5b601f19601f8301169050602081019050919050565b600067ffffffffffffffff82111561346a576134696136b3565b5b601f19601f8301169050602081019050919050565b600081519050919050565b600081519050919050565b600082825260208201905092915050565b600082825260208201905092915050565b600081905092915050565b60006134cd826135c0565b91506134d8836135c0565b9250827fffffffffffffffffffffffffffffffffffffffffffffffffffffffffffffffff0382111561350d5761350c613655565b5b828201905092915050565b6000613523826135c0565b915061352e836135c0565b92508282101561354157613540613655565b5b828203905092915050565b6000613557826135a0565b9050919050565b60008115159050919050565b6000819050919050565b60007fffffffff0000000000000000000000000000000000000000000000000000000082169050919050565b600073ffffffffffffffffffffffffffffffffffffffff82169050919050565b6000819050919050565b600060ff82169050919050565b82818337600083830152505050565b60005b838110156136045780820151818401526020810190506135e9565b83811115613613576000848401525b50505050565b6000600282049050600182168061363157607f821691505b6020821081141561364557613644613684565b5b50919050565b6000819050919050565b7f4e487b7100000000000000000000000000000000000000000000000000000000600052601160045260246000fd5b7f4e487b7100000000000000000000000000000000000000000000000000000000600052602260045260246000fd5b7f4e487b7100000000000000000000000000000000000000000000000000000000600052604160045260246000fd5b6000601f19601f8301169050919050565b6136fc8161354c565b811461370757600080fd5b50565b6137138161355e565b811461371e57600080fd5b50565b61372a81613574565b811461373557600080fd5b50565b613741816135c0565b811461374c57600080fd5b5056fea264697066735822122025b0683c0fe7b6d0c09df2f48622a65decdcdee917db933e071ed2d2e87ae07d64736f6c63430008000033",
  "linkReferences": {},
  "deployedLinkReferences": {}
}