{
  "contractName": "WebaverseNFT",
  "abi": [
    {
      "inputs": [],
      "stateMutability": "nonpayable",
      "type": "constructor"
    },
    {
      "anonymous": false,
      "inputs": [
        {
          "indexed": true,
          "internalType": "address",
          "name": "owner",
          "type": "address"
        },
        {
          "indexed": true,
          "internalType": "address",
          "name": "approved",
          "type": "address"
        },
        {
          "indexed": true,
          "internalType": "uint256",
          "name": "tokenId",
          "type": "uint256"
        }
      ],
      "name": "Approval",
      "type": "event"
    },
    {
      "anonymous": false,
      "inputs": [
        {
          "indexed": true,
          "internalType": "address",
          "name": "owner",
          "type": "address"
        },
        {
          "indexed": true,
          "internalType": "address",
          "name": "operator",
          "type": "address"
        },
        {
          "indexed": false,
          "internalType": "bool",
          "name": "approved",
          "type": "bool"
        }
      ],
      "name": "ApprovalForAll",
      "type": "event"
    },
    {
      "anonymous": false,
      "inputs": [
        {
          "indexed": true,
          "internalType": "address",
          "name": "from",
          "type": "address"
        },
        {
          "indexed": true,
          "internalType": "address",
          "name": "to",
          "type": "address"
        },
        {
          "indexed": true,
          "internalType": "uint256",
          "name": "tokenId",
          "type": "uint256"
        }
      ],
      "name": "Transfer",
      "type": "event"
    },
    {
      "inputs": [
        {
          "internalType": "address",
          "name": "to",
          "type": "address"
        },
        {
          "internalType": "uint256",
          "name": "tokenId",
          "type": "uint256"
        }
      ],
      "name": "approve",
      "outputs": [],
      "stateMutability": "nonpayable",
      "type": "function"
    },
    {
      "inputs": [
        {
          "internalType": "address",
          "name": "owner",
          "type": "address"
        }
      ],
      "name": "balanceOf",
      "outputs": [
        {
          "internalType": "uint256",
          "name": "",
          "type": "uint256"
        }
      ],
      "stateMutability": "view",
      "type": "function",
      "constant": true
    },
    {
      "inputs": [
        {
          "internalType": "uint256",
          "name": "tokenId",
          "type": "uint256"
        }
      ],
      "name": "getApproved",
      "outputs": [
        {
          "internalType": "address",
          "name": "",
          "type": "address"
        }
      ],
      "stateMutability": "view",
      "type": "function",
      "constant": true
    },
    {
      "inputs": [
        {
          "internalType": "address",
          "name": "owner",
          "type": "address"
        },
        {
          "internalType": "address",
          "name": "operator",
          "type": "address"
        }
      ],
      "name": "isApprovedForAll",
      "outputs": [
        {
          "internalType": "bool",
          "name": "",
          "type": "bool"
        }
      ],
      "stateMutability": "view",
      "type": "function",
      "constant": true
    },
    {
      "inputs": [],
      "name": "name",
      "outputs": [
        {
          "internalType": "string",
          "name": "",
          "type": "string"
        }
      ],
      "stateMutability": "view",
      "type": "function",
      "constant": true
    },
    {
      "inputs": [
        {
          "internalType": "address",
          "name": "",
          "type": "address"
        }
      ],
      "name": "nonces",
      "outputs": [
        {
          "internalType": "uint256",
          "name": "",
          "type": "uint256"
        }
      ],
      "stateMutability": "view",
      "type": "function",
      "constant": true
    },
    {
      "inputs": [
        {
          "internalType": "uint256",
          "name": "tokenId",
          "type": "uint256"
        }
      ],
      "name": "ownerOf",
      "outputs": [
        {
          "internalType": "address",
          "name": "",
          "type": "address"
        }
      ],
      "stateMutability": "view",
      "type": "function",
      "constant": true
    },
    {
      "inputs": [
        {
          "internalType": "address",
          "name": "from",
          "type": "address"
        },
        {
          "internalType": "address",
          "name": "to",
          "type": "address"
        },
        {
          "internalType": "uint256",
          "name": "tokenId",
          "type": "uint256"
        }
      ],
      "name": "safeTransferFrom",
      "outputs": [],
      "stateMutability": "nonpayable",
      "type": "function"
    },
    {
      "inputs": [
        {
          "internalType": "address",
          "name": "from",
          "type": "address"
        },
        {
          "internalType": "address",
          "name": "to",
          "type": "address"
        },
        {
          "internalType": "uint256",
          "name": "tokenId",
          "type": "uint256"
        },
        {
          "internalType": "bytes",
          "name": "_data",
          "type": "bytes"
        }
      ],
      "name": "safeTransferFrom",
      "outputs": [],
      "stateMutability": "nonpayable",
      "type": "function"
    },
    {
      "inputs": [
        {
          "internalType": "address",
          "name": "operator",
          "type": "address"
        },
        {
          "internalType": "bool",
          "name": "approved",
          "type": "bool"
        }
      ],
      "name": "setApprovalForAll",
      "outputs": [],
      "stateMutability": "nonpayable",
      "type": "function"
    },
    {
      "inputs": [],
      "name": "symbol",
      "outputs": [
        {
          "internalType": "string",
          "name": "",
          "type": "string"
        }
      ],
      "stateMutability": "view",
      "type": "function",
      "constant": true
    },
    {
      "inputs": [
        {
          "internalType": "address",
          "name": "from",
          "type": "address"
        },
        {
          "internalType": "address",
          "name": "to",
          "type": "address"
        },
        {
          "internalType": "uint256",
          "name": "tokenId",
          "type": "uint256"
        }
      ],
      "name": "transferFrom",
      "outputs": [],
      "stateMutability": "nonpayable",
      "type": "function"
    },
    {
      "inputs": [
        {
          "internalType": "address",
          "name": "account",
          "type": "address"
        },
        {
          "internalType": "uint256",
          "name": "tokenId",
          "type": "uint256"
        },
        {
          "internalType": "string",
          "name": "cid",
          "type": "string"
        }
      ],
      "name": "mint",
      "outputs": [],
      "stateMutability": "nonpayable",
      "type": "function"
    },
    {
      "inputs": [
        {
          "internalType": "uint256",
          "name": "tokenId",
          "type": "uint256"
        }
      ],
      "name": "tokenURI",
      "outputs": [
        {
          "internalType": "string",
          "name": "",
          "type": "string"
        }
      ],
      "stateMutability": "view",
      "type": "function",
      "constant": true
    },
    {
      "inputs": [
        {
          "internalType": "address",
          "name": "claimer",
          "type": "address"
        },
        {
          "components": [
            {
              "internalType": "uint256",
              "name": "tokenId",
              "type": "uint256"
            },
            {
              "internalType": "uint256",
              "name": "nonce",
              "type": "uint256"
            },
            {
              "internalType": "uint256",
              "name": "expiry",
              "type": "uint256"
            },
            {
              "internalType": "bytes",
              "name": "signature",
              "type": "bytes"
            }
          ],
          "internalType": "struct WebaverseNFT.NFTVoucher",
          "name": "voucher",
          "type": "tuple"
        }
      ],
      "name": "claim",
      "outputs": [
        {
          "internalType": "uint256",
          "name": "",
          "type": "uint256"
        }
      ],
      "stateMutability": "payable",
      "type": "function",
      "payable": true
    },
    {
      "inputs": [],
      "name": "getChainID",
      "outputs": [
        {
          "internalType": "uint256",
          "name": "",
          "type": "uint256"
        }
      ],
      "stateMutability": "view",
      "type": "function",
      "constant": true
    },
    {
      "inputs": [
        {
          "internalType": "bytes4",
          "name": "interfaceId",
          "type": "bytes4"
        }
      ],
      "name": "supportsInterface",
      "outputs": [
        {
          "internalType": "bool",
          "name": "",
          "type": "bool"
        }
      ],
      "stateMutability": "view",
      "type": "function",
      "constant": true
    }
  ],
  "bytecode": "0x6101206040523480156200001257600080fd5b506040518060400160405280601181526020017f5765626176657273652d766f75636865720000000000000000000000000000008152506040518060400160405280600181526020017f31000000000000000000000000000000000000000000000000000000000000008152506040518060400160405280600c81526020017f5765626176657273654e465400000000000000000000000000000000000000008152506040518060400160405280600481526020017f5756525300000000000000000000000000000000000000000000000000000000815250816000908051906020019062000103929190620001de565b5080600190805190602001906200011c929190620001de565b50505060008280519060200120905060008280519060200120905060007f8b73c3c69bb8fe3d512ecc4cf759cc79239f7b179b0ffacaa9a75d522b39400f90508260c081815250508160e081815250504660a0818152505062000187818484620001a260201b60201c565b608081815250508061010081815250505050505050620003cb565b60008383834630604051602001620001bf959493929190620002c1565b6040516020818303038152906040528051906020012090509392505050565b828054620001ec9062000366565b90600052602060002090601f0160209004810192826200021057600085556200025c565b82601f106200022b57805160ff19168380011785556200025c565b828001600101855582156200025c579182015b828111156200025b5782518255916020019190600101906200023e565b5b5090506200026b91906200026f565b5090565b5b808211156200028a57600081600090555060010162000270565b5090565b62000299816200031e565b82525050565b620002aa8162000332565b82525050565b620002bb816200035c565b82525050565b600060a082019050620002d860008301886200029f565b620002e760208301876200029f565b620002f660408301866200029f565b620003056060830185620002b0565b6200031460808301846200028e565b9695505050505050565b60006200032b826200033c565b9050919050565b6000819050919050565b600073ffffffffffffffffffffffffffffffffffffffff82169050919050565b6000819050919050565b600060028204905060018216806200037f57607f821691505b602082108114156200039657620003956200039c565b5b50919050565b7f4e487b7100000000000000000000000000000000000000000000000000000000600052602260045260246000fd5b60805160a05160c05160e051610100516136b7620004106000396000611e2601526000611e6801526000611e4701526000611dd301526000611dfb01526136b76000f3fe6080604052600436106100fe5760003560e01c80636eb2634611610095578063a22cb46511610064578063a22cb46514610360578063b88d4fde14610389578063c87b56dd146103b2578063d3fc9864146103ef578063e985e9c514610418576100fe565b80636eb263461461028b57806370a08231146102bb5780637ecebe00146102f857806395d89b4114610335576100fe565b806323b872dd116100d157806323b872dd146101d157806342842e0e146101fa578063564b81ef146102235780636352211e1461024e576100fe565b806301ffc9a71461010357806306fdde0314610140578063081812fc1461016b578063095ea7b3146101a8575b600080fd5b34801561010f57600080fd5b5061012a600480360381019061012591906124b3565b610455565b6040516101379190612eb4565b60405180910390f35b34801561014c57600080fd5b50610155610467565b6040516101629190612fac565b60405180910390f35b34801561017757600080fd5b50610192600480360381019061018d9190612505565b6104f9565b60405161019f9190612e4d565b60405180910390f35b3480156101b457600080fd5b506101cf60048036038101906101ca9190612410565b61057e565b005b3480156101dd57600080fd5b506101f860048036038101906101f391906122b6565b610696565b005b34801561020657600080fd5b50610221600480360381019061021c91906122b6565b6106f6565b005b34801561022f57600080fd5b50610238610716565b60405161024591906132ae565b60405180910390f35b34801561025a57600080fd5b5061027560048036038101906102709190612505565b610723565b6040516102829190612e4d565b60405180910390f35b6102a560048036038101906102a091906123bc565b6107d5565b6040516102b291906132ae565b60405180910390f35b3480156102c757600080fd5b506102e260048036038101906102dd9190612251565b61099d565b6040516102ef91906132ae565b60405180910390f35b34801561030457600080fd5b5061031f600480360381019061031a9190612251565b610a55565b60405161032c91906132ae565b60405180910390f35b34801561034157600080fd5b5061034a610a6d565b6040516103579190612fac565b60405180910390f35b34801561036c57600080fd5b5061038760048036038101906103829190612380565b610aff565b005b34801561039557600080fd5b506103b060048036038101906103ab9190612305565b610c80565b005b3480156103be57600080fd5b506103d960048036038101906103d49190612505565b610ce2565b6040516103e69190612fac565b60405180910390f35b3480156103fb57600080fd5b506104166004803603810190610411919061244c565b610dcf565b005b34801561042457600080fd5b5061043f600480360381019061043a919061227a565b610de8565b60405161044c9190612eb4565b60405180910390f35b600061046082610e7c565b9050919050565b6060600080546104769061354b565b80601f01602080910402602001604051908101604052809291908181526020018280546104a29061354b565b80156104ef5780601f106104c4576101008083540402835291602001916104ef565b820191906000526020600020905b8154815290600101906020018083116104d257829003601f168201915b5050505050905090565b600061050482610f5e565b610543576040517f08c379a000000000000000000000000000000000000000000000000000000000815260040161053a906131ee565b60405180910390fd5b6004600083815260200190815260200160002060009054906101000a900473ffffffffffffffffffffffffffffffffffffffff169050919050565b600061058982610723565b90508073ffffffffffffffffffffffffffffffffffffffff168373ffffffffffffffffffffffffffffffffffffffff1614156105fa576040517f08c379a00000000000000000000000000000000000000000000000000000000081526004016105f19061324e565b60405180910390fd5b8073ffffffffffffffffffffffffffffffffffffffff16610619610fca565b73ffffffffffffffffffffffffffffffffffffffff161480610648575061064781610642610fca565b610de8565b5b610687576040517f08c379a000000000000000000000000000000000000000000000000000000000815260040161067e9061314e565b60405180910390fd5b6106918383610fd2565b505050565b6106a76106a1610fca565b8261108b565b6106e6576040517f08c379a00000000000000000000000000000000000000000000000000000000081526004016106dd9061328e565b60405180910390fd5b6106f1838383611169565b505050565b61071183838360405180602001604052806000815250610c80565b505050565b6000804690508091505090565b6000806002600084815260200190815260200160002060009054906101000a900473ffffffffffffffffffffffffffffffffffffffff169050600073ffffffffffffffffffffffffffffffffffffffff168173ffffffffffffffffffffffffffffffffffffffff1614156107cc576040517f08c379a00000000000000000000000000000000000000000000000000000000081526004016107c39061318e565b60405180910390fd5b80915050919050565b6000806107e1836113c5565b90506107f08360000135610723565b73ffffffffffffffffffffffffffffffffffffffff168173ffffffffffffffffffffffffffffffffffffffff161461085d576040517f08c379a00000000000000000000000000000000000000000000000000000000081526004016108549061326e565b60405180910390fd5b82604001354211156108a4576040517f08c379a000000000000000000000000000000000000000000000000000000000815260040161089b9061302e565b60405180910390fd5b600760008273ffffffffffffffffffffffffffffffffffffffff1673ffffffffffffffffffffffffffffffffffffffff16815260200190815260200160002054836020013514610929576040517f08c379a00000000000000000000000000000000000000000000000000000000081526004016109209061312e565b60405180910390fd5b61093881858560000135611169565b6001600760008373ffffffffffffffffffffffffffffffffffffffff1673ffffffffffffffffffffffffffffffffffffffff168152602001908152602001600020600082825461098891906133f4565b92505081905550826000013591505092915050565b60008073ffffffffffffffffffffffffffffffffffffffff168273ffffffffffffffffffffffffffffffffffffffff161415610a0e576040517f08c379a0000000000000000000000000000000000000000000000000000000008152600401610a059061316e565b60405180910390fd5b600360008373ffffffffffffffffffffffffffffffffffffffff1673ffffffffffffffffffffffffffffffffffffffff168152602001908152602001600020549050919050565b60076020528060005260406000206000915090505481565b606060018054610a7c9061354b565b80601f0160208091040260200160405190810160405280929190818152602001828054610aa89061354b565b8015610af55780601f10610aca57610100808354040283529160200191610af5565b820191906000526020600020905b815481529060010190602001808311610ad857829003601f168201915b5050505050905090565b610b07610fca565b73ffffffffffffffffffffffffffffffffffffffff168273ffffffffffffffffffffffffffffffffffffffff161415610b75576040517f08c379a0000000000000000000000000000000000000000000000000000000008152600401610b6c906130ae565b60405180910390fd5b8060056000610b82610fca565b73ffffffffffffffffffffffffffffffffffffffff1673ffffffffffffffffffffffffffffffffffffffff16815260200190815260200160002060008473ffffffffffffffffffffffffffffffffffffffff1673ffffffffffffffffffffffffffffffffffffffff16815260200190815260200160002060006101000a81548160ff0219169083151502179055508173ffffffffffffffffffffffffffffffffffffffff16610c2f610fca565b73ffffffffffffffffffffffffffffffffffffffff167f17307eab39ab6107e8899845ad3d59bd9653f200f220920489ca2b5937696c3183604051610c749190612eb4565b60405180910390a35050565b610c91610c8b610fca565b8361108b565b610cd0576040517f08c379a0000000000000000000000000000000000000000000000000000000008152600401610cc79061328e565b60405180910390fd5b610cdc84848484611437565b50505050565b6060610ced82610f5e565b610d2c576040517f08c379a0000000000000000000000000000000000000000000000000000000008152600401610d239061320e565b60405180910390fd5b600860008381526020019081526020016000208054610d4a9061354b565b80601f0160208091040260200160405190810160405280929190818152602001828054610d769061354b565b8015610dc35780601f10610d9857610100808354040283529160200191610dc3565b820191906000526020600020905b815481529060010190602001808311610da657829003601f168201915b50505050509050919050565b610dd98383611493565b610de38282611661565b505050565b6000600560008473ffffffffffffffffffffffffffffffffffffffff1673ffffffffffffffffffffffffffffffffffffffff16815260200190815260200160002060008373ffffffffffffffffffffffffffffffffffffffff1673ffffffffffffffffffffffffffffffffffffffff16815260200190815260200160002060009054906101000a900460ff16905092915050565b60007f80ac58cd000000000000000000000000000000000000000000000000000000007bffffffffffffffffffffffffffffffffffffffffffffffffffffffff1916827bffffffffffffffffffffffffffffffffffffffffffffffffffffffff19161480610f4757507f5b5e139f000000000000000000000000000000000000000000000000000000007bffffffffffffffffffffffffffffffffffffffffffffffffffffffff1916827bffffffffffffffffffffffffffffffffffffffffffffffffffffffff1916145b80610f575750610f5682611737565b5b9050919050565b60008073ffffffffffffffffffffffffffffffffffffffff166002600084815260200190815260200160002060009054906101000a900473ffffffffffffffffffffffffffffffffffffffff1673ffffffffffffffffffffffffffffffffffffffff1614159050919050565b600033905090565b816004600083815260200190815260200160002060006101000a81548173ffffffffffffffffffffffffffffffffffffffff021916908373ffffffffffffffffffffffffffffffffffffffff160217905550808273ffffffffffffffffffffffffffffffffffffffff1661104583610723565b73ffffffffffffffffffffffffffffffffffffffff167f8c5be1e5ebec7d5bd14f71427d1e84f3dd0314c0f7b2291e5b200ac8c7c3b92560405160405180910390a45050565b600061109682610f5e565b6110d5576040517f08c379a00000000000000000000000000000000000000000000000000000000081526004016110cc906130ee565b60405180910390fd5b60006110e083610723565b90508073ffffffffffffffffffffffffffffffffffffffff168473ffffffffffffffffffffffffffffffffffffffff16148061114f57508373ffffffffffffffffffffffffffffffffffffffff16611137846104f9565b73ffffffffffffffffffffffffffffffffffffffff16145b80611160575061115f8185610de8565b5b91505092915050565b8273ffffffffffffffffffffffffffffffffffffffff1661118982610723565b73ffffffffffffffffffffffffffffffffffffffff16146111df576040517f08c379a00000000000000000000000000000000000000000000000000000000081526004016111d69061322e565b60405180910390fd5b600073ffffffffffffffffffffffffffffffffffffffff168273ffffffffffffffffffffffffffffffffffffffff16141561124f576040517f08c379a00000000000000000000000000000000000000000000000000000000081526004016112469061308e565b60405180910390fd5b61125a8383836117a1565b611265600082610fd2565b6001600360008573ffffffffffffffffffffffffffffffffffffffff1673ffffffffffffffffffffffffffffffffffffffff16815260200190815260200160002060008282546112b5919061344a565b925050819055506001600360008473ffffffffffffffffffffffffffffffffffffffff1673ffffffffffffffffffffffffffffffffffffffff168152602001908152602001600020600082825461130c91906133f4565b92505081905550816002600083815260200190815260200160002060006101000a81548173ffffffffffffffffffffffffffffffffffffffff021916908373ffffffffffffffffffffffffffffffffffffffff160217905550808273ffffffffffffffffffffffffffffffffffffffff168473ffffffffffffffffffffffffffffffffffffffff167fddf252ad1be2c89b69c2b068fc378daa952ba7f163c4a11628f55a4df523b3ef60405160405180910390a4505050565b6000806113d1836117a6565b905061142f818480606001906113e791906132c9565b8080601f016020809104026020016040519081016040528093929190818152602001838380828437600081840152601f19601f82011690508083019250505050505050611810565b915050919050565b611442848484611169565b61144e84848484611837565b61148d576040517f08c379a00000000000000000000000000000000000000000000000000000000081526004016114849061300e565b60405180910390fd5b50505050565b600073ffffffffffffffffffffffffffffffffffffffff168273ffffffffffffffffffffffffffffffffffffffff161415611503576040517f08c379a00000000000000000000000000000000000000000000000000000000081526004016114fa906131ce565b60405180910390fd5b61150c81610f5e565b1561154c576040517f08c379a00000000000000000000000000000000000000000000000000000000081526004016115439061304e565b60405180910390fd5b611558600083836117a1565b6001600360008473ffffffffffffffffffffffffffffffffffffffff1673ffffffffffffffffffffffffffffffffffffffff16815260200190815260200160002060008282546115a891906133f4565b92505081905550816002600083815260200190815260200160002060006101000a81548173ffffffffffffffffffffffffffffffffffffffff021916908373ffffffffffffffffffffffffffffffffffffffff160217905550808273ffffffffffffffffffffffffffffffffffffffff16600073ffffffffffffffffffffffffffffffffffffffff167fddf252ad1be2c89b69c2b068fc378daa952ba7f163c4a11628f55a4df523b3ef60405160405180910390a45050565b61166a82610f5e565b6116a9576040517f08c379a00000000000000000000000000000000000000000000000000000000081526004016116a09061306e565b60405180910390fd5b60006008600084815260200190815260200160002080546116c99061354b565b90501461170b576040517f08c379a00000000000000000000000000000000000000000000000000000000081526004016117029061310e565b60405180910390fd5b8060086000848152602001908152602001600020908051906020019061173292919061205a565b505050565b60007f01ffc9a7000000000000000000000000000000000000000000000000000000007bffffffffffffffffffffffffffffffffffffffffffffffffffffffff1916827bffffffffffffffffffffffffffffffffffffffffffffffffffffffff1916149050919050565b505050565b60006118097fa71ded31e2bec61339bad6247783eb9b59b4ad6bc34cbc5a94eadbb2825c47228360000135846020013585604001356040516020016117ee9493929190612f22565b604051602081830303815290604052805190602001206119ce565b9050919050565b600080600061181f85856119e8565b9150915061182c81611a6b565b819250505092915050565b60006118588473ffffffffffffffffffffffffffffffffffffffff16611dbc565b156119c1578373ffffffffffffffffffffffffffffffffffffffff1663150b7a02611881610fca565b8786866040518563ffffffff1660e01b81526004016118a39493929190612e68565b602060405180830381600087803b1580156118bd57600080fd5b505af19250505080156118ee57506040513d601f19601f820116820180604052508101906118eb91906124dc565b60015b611971573d806000811461191e576040519150601f19603f3d011682016040523d82523d6000602084013e611923565b606091505b50600081511415611969576040517f08c379a00000000000000000000000000000000000000000000000000000000081526004016119609061300e565b60405180910390fd5b805181602001fd5b63150b7a0260e01b7bffffffffffffffffffffffffffffffffffffffffffffffffffffffff1916817bffffffffffffffffffffffffffffffffffffffffffffffffffffffff1916149150506119c6565b600190505b949350505050565b60006119e16119db611dcf565b83611e92565b9050919050565b600080604183511415611a2a5760008060006020860151925060408601519150606086015160001a9050611a1e87828585611ec5565b94509450505050611a64565b604083511415611a5b576000806020850151915060408501519050611a50868383611fd2565b935093505050611a64565b60006002915091505b9250929050565b60006004811115611aa5577f4e487b7100000000000000000000000000000000000000000000000000000000600052602160045260246000fd5b816004811115611ade577f4e487b7100000000000000000000000000000000000000000000000000000000600052602160045260246000fd5b1415611ae957611db9565b60016004811115611b23577f4e487b7100000000000000000000000000000000000000000000000000000000600052602160045260246000fd5b816004811115611b5c577f4e487b7100000000000000000000000000000000000000000000000000000000600052602160045260246000fd5b1415611b9d576040517f08c379a0000000000000000000000000000000000000000000000000000000008152600401611b9490612fce565b60405180910390fd5b60026004811115611bd7577f4e487b7100000000000000000000000000000000000000000000000000000000600052602160045260246000fd5b816004811115611c10577f4e487b7100000000000000000000000000000000000000000000000000000000600052602160045260246000fd5b1415611c51576040517f08c379a0000000000000000000000000000000000000000000000000000000008152600401611c4890612fee565b60405180910390fd5b60036004811115611c8b577f4e487b7100000000000000000000000000000000000000000000000000000000600052602160045260246000fd5b816004811115611cc4577f4e487b7100000000000000000000000000000000000000000000000000000000600052602160045260246000fd5b1415611d05576040517f08c379a0000000000000000000000000000000000000000000000000000000008152600401611cfc906130ce565b60405180910390fd5b600480811115611d3e577f4e487b7100000000000000000000000000000000000000000000000000000000600052602160045260246000fd5b816004811115611d77577f4e487b7100000000000000000000000000000000000000000000000000000000600052602160045260246000fd5b1415611db8576040517f08c379a0000000000000000000000000000000000000000000000000000000008152600401611daf906131ae565b60405180910390fd5b5b50565b600080823b905060008111915050919050565b60007f0000000000000000000000000000000000000000000000000000000000000000461415611e21577f00000000000000000000000000000000000000000000000000000000000000009050611e8f565b611e8c7f00000000000000000000000000000000000000000000000000000000000000007f00000000000000000000000000000000000000000000000000000000000000007f0000000000000000000000000000000000000000000000000000000000000000612020565b90505b90565b60008282604051602001611ea7929190612e16565b60405160208183030381529060405280519060200120905092915050565b6000807f7fffffffffffffffffffffffffffffff5d576e7357a4501ddfe92f46681b20a08360001c1115611f00576000600391509150611fc9565b601b8560ff1614158015611f185750601c8560ff1614155b15611f2a576000600491509150611fc9565b600060018787878760405160008152602001604052604051611f4f9493929190612f67565b6020604051602081039080840390855afa158015611f71573d6000803e3d6000fd5b505050602060405103519050600073ffffffffffffffffffffffffffffffffffffffff168173ffffffffffffffffffffffffffffffffffffffff161415611fc057600060019250925050611fc9565b80600092509250505b94509492505050565b6000806000807f7fffffffffffffffffffffffffffffffffffffffffffffffffffffffffffffff85169150601b8560ff1c01905061201287828885611ec5565b935093505050935093915050565b6000838383463060405160200161203b959493929190612ecf565b6040516020818303038152906040528051906020012090509392505050565b8280546120669061354b565b90600052602060002090601f01602090048101928261208857600085556120cf565b82601f106120a157805160ff19168380011785556120cf565b828001600101855582156120cf579182015b828111156120ce5782518255916020019190600101906120b3565b5b5090506120dc91906120e0565b5090565b5b808211156120f95760008160009055506001016120e1565b5090565b600061211061210b84613351565b613320565b90508281526020810184848401111561212857600080fd5b612133848285613509565b509392505050565b600061214e61214984613381565b613320565b90508281526020810184848401111561216657600080fd5b612171848285613509565b509392505050565b60008135905061218881613625565b92915050565b60008135905061219d8161363c565b92915050565b6000813590506121b281613653565b92915050565b6000815190506121c781613653565b92915050565b600082601f8301126121de57600080fd5b81356121ee8482602086016120fd565b91505092915050565b600082601f83011261220857600080fd5b813561221884826020860161213b565b91505092915050565b60006080828403121561223357600080fd5b81905092915050565b60008135905061224b8161366a565b92915050565b60006020828403121561226357600080fd5b600061227184828501612179565b91505092915050565b6000806040838503121561228d57600080fd5b600061229b85828601612179565b92505060206122ac85828601612179565b9150509250929050565b6000806000606084860312156122cb57600080fd5b60006122d986828701612179565b93505060206122ea86828701612179565b92505060406122fb8682870161223c565b9150509250925092565b6000806000806080858703121561231b57600080fd5b600061232987828801612179565b945050602061233a87828801612179565b935050604061234b8782880161223c565b925050606085013567ffffffffffffffff81111561236857600080fd5b612374878288016121cd565b91505092959194509250565b6000806040838503121561239357600080fd5b60006123a185828601612179565b92505060206123b28582860161218e565b9150509250929050565b600080604083850312156123cf57600080fd5b60006123dd85828601612179565b925050602083013567ffffffffffffffff8111156123fa57600080fd5b61240685828601612221565b9150509250929050565b6000806040838503121561242357600080fd5b600061243185828601612179565b92505060206124428582860161223c565b9150509250929050565b60008060006060848603121561246157600080fd5b600061246f86828701612179565b93505060206124808682870161223c565b925050604084013567ffffffffffffffff81111561249d57600080fd5b6124a9868287016121f7565b9150509250925092565b6000602082840312156124c557600080fd5b60006124d3848285016121a3565b91505092915050565b6000602082840312156124ee57600080fd5b60006124fc848285016121b8565b91505092915050565b60006020828403121561251757600080fd5b60006125258482850161223c565b91505092915050565b6125378161347e565b82525050565b61254681613490565b82525050565b6125558161349c565b82525050565b61256c6125678261349c565b61357d565b82525050565b600061257d826133b1565b61258781856133c7565b9350612597818560208601613518565b6125a081613614565b840191505092915050565b60006125b6826133bc565b6125c081856133d8565b93506125d0818560208601613518565b6125d981613614565b840191505092915050565b60006125f16018836133d8565b91507f45434453413a20696e76616c6964207369676e617475726500000000000000006000830152602082019050919050565b6000612631601f836133d8565b91507f45434453413a20696e76616c6964207369676e6174757265206c656e677468006000830152602082019050919050565b60006126716032836133d8565b91507f4552433732313a207472616e7366657220746f206e6f6e20455243373231526560008301527f63656976657220696d706c656d656e74657200000000000000000000000000006020830152604082019050919050565b60006126d7601b836133d8565b91507f566f75636865722068617320616c7265616479206578706972656400000000006000830152602082019050919050565b6000612717601c836133d8565b91507f4552433732313a20746f6b656e20616c7265616479206d696e746564000000006000830152602082019050919050565b60006127576002836133e9565b91507f19010000000000000000000000000000000000000000000000000000000000006000830152600282019050919050565b6000612797602e836133d8565b91507f53657474696e672055524920666f72206e6f6e2d6578697374656e7420746f6b60008301527f656e206e6f7420616c6c6f7765640000000000000000000000000000000000006020830152604082019050919050565b60006127fd6024836133d8565b91507f4552433732313a207472616e7366657220746f20746865207a65726f2061646460008301527f72657373000000000000000000000000000000000000000000000000000000006020830152604082019050919050565b60006128636019836133d8565b91507f4552433732313a20617070726f766520746f2063616c6c6572000000000000006000830152602082019050919050565b60006128a36022836133d8565b91507f45434453413a20696e76616c6964207369676e6174757265202773272076616c60008301527f75650000000000000000000000000000000000000000000000000000000000006020830152604082019050919050565b6000612909602c836133d8565b91507f4552433732313a206f70657261746f7220717565727920666f72206e6f6e657860008301527f697374656e7420746f6b656e00000000000000000000000000000000000000006020830152604082019050919050565b600061296f601f836133d8565b91507f5468697320746f6b656e27732055524920616c726561647920657869737473006000830152602082019050919050565b60006129af6013836133d8565b91507f496e76616c6964206e6f6e63652076616c7565000000000000000000000000006000830152602082019050919050565b60006129ef6038836133d8565b91507f4552433732313a20617070726f76652063616c6c6572206973206e6f74206f7760008301527f6e6572206e6f7220617070726f76656420666f7220616c6c00000000000000006020830152604082019050919050565b6000612a55602a836133d8565b91507f4552433732313a2062616c616e636520717565727920666f7220746865207a6560008301527f726f2061646472657373000000000000000000000000000000000000000000006020830152604082019050919050565b6000612abb6029836133d8565b91507f4552433732313a206f776e657220717565727920666f72206e6f6e657869737460008301527f656e7420746f6b656e00000000000000000000000000000000000000000000006020830152604082019050919050565b6000612b216022836133d8565b91507f45434453413a20696e76616c6964207369676e6174757265202776272076616c60008301527f75650000000000000000000000000000000000000000000000000000000000006020830152604082019050919050565b6000612b876020836133d8565b91507f4552433732313a206d696e7420746f20746865207a65726f20616464726573736000830152602082019050919050565b6000612bc7602c836133d8565b91507f4552433732313a20617070726f76656420717565727920666f72206e6f6e657860008301527f697374656e7420746f6b656e00000000000000000000000000000000000000006020830152604082019050919050565b6000612c2d601c836133d8565b91507f517565727920666f72206e6f6e206578697374656e7420746f6b656e000000006000830152602082019050919050565b6000612c6d6029836133d8565b91507f4552433732313a207472616e73666572206f6620746f6b656e2074686174206960008301527f73206e6f74206f776e00000000000000000000000000000000000000000000006020830152604082019050919050565b6000612cd36021836133d8565b91507f4552433732313a20617070726f76616c20746f2063757272656e74206f776e6560008301527f72000000000000000000000000000000000000000000000000000000000000006020830152604082019050919050565b6000612d396027836133d8565b91507f417574686f72697a6174696f6e206661696c65643a20496e76616c696420736960008301527f676e6174757265000000000000000000000000000000000000000000000000006020830152604082019050919050565b6000612d9f6031836133d8565b91507f4552433732313a207472616e736665722063616c6c6572206973206e6f74206f60008301527f776e6572206e6f7220617070726f7665640000000000000000000000000000006020830152604082019050919050565b612e01816134f2565b82525050565b612e10816134fc565b82525050565b6000612e218261274a565b9150612e2d828561255b565b602082019150612e3d828461255b565b6020820191508190509392505050565b6000602082019050612e62600083018461252e565b92915050565b6000608082019050612e7d600083018761252e565b612e8a602083018661252e565b612e976040830185612df8565b8181036060830152612ea98184612572565b905095945050505050565b6000602082019050612ec9600083018461253d565b92915050565b600060a082019050612ee4600083018861254c565b612ef1602083018761254c565b612efe604083018661254c565b612f0b6060830185612df8565b612f18608083018461252e565b9695505050505050565b6000608082019050612f37600083018761254c565b612f446020830186612df8565b612f516040830185612df8565b612f5e6060830184612df8565b95945050505050565b6000608082019050612f7c600083018761254c565b612f896020830186612e07565b612f96604083018561254c565b612fa3606083018461254c565b95945050505050565b60006020820190508181036000830152612fc681846125ab565b905092915050565b60006020820190508181036000830152612fe7816125e4565b9050919050565b6000602082019050818103600083015261300781612624565b9050919050565b6000602082019050818103600083015261302781612664565b9050919050565b60006020820190508181036000830152613047816126ca565b9050919050565b600060208201905081810360008301526130678161270a565b9050919050565b600060208201905081810360008301526130878161278a565b9050919050565b600060208201905081810360008301526130a7816127f0565b9050919050565b600060208201905081810360008301526130c781612856565b9050919050565b600060208201905081810360008301526130e781612896565b9050919050565b60006020820190508181036000830152613107816128fc565b9050919050565b6000602082019050818103600083015261312781612962565b9050919050565b60006020820190508181036000830152613147816129a2565b9050919050565b60006020820190508181036000830152613167816129e2565b9050919050565b6000602082019050818103600083015261318781612a48565b9050919050565b600060208201905081810360008301526131a781612aae565b9050919050565b600060208201905081810360008301526131c781612b14565b9050919050565b600060208201905081810360008301526131e781612b7a565b9050919050565b6000602082019050818103600083015261320781612bba565b9050919050565b6000602082019050818103600083015261322781612c20565b9050919050565b6000602082019050818103600083015261324781612c60565b9050919050565b6000602082019050818103600083015261326781612cc6565b9050919050565b6000602082019050818103600083015261328781612d2c565b9050919050565b600060208201905081810360008301526132a781612d92565b9050919050565b60006020820190506132c36000830184612df8565b92915050565b600080833560016020038436030381126132e257600080fd5b80840192508235915067ffffffffffffffff82111561330057600080fd5b60208301925060018202360383131561331857600080fd5b509250929050565b6000604051905081810181811067ffffffffffffffff82111715613347576133466135e5565b5b8060405250919050565b600067ffffffffffffffff82111561336c5761336b6135e5565b5b601f19601f8301169050602081019050919050565b600067ffffffffffffffff82111561339c5761339b6135e5565b5b601f19601f8301169050602081019050919050565b600081519050919050565b600081519050919050565b600082825260208201905092915050565b600082825260208201905092915050565b600081905092915050565b60006133ff826134f2565b915061340a836134f2565b9250827fffffffffffffffffffffffffffffffffffffffffffffffffffffffffffffffff0382111561343f5761343e613587565b5b828201905092915050565b6000613455826134f2565b9150613460836134f2565b92508282101561347357613472613587565b5b828203905092915050565b6000613489826134d2565b9050919050565b60008115159050919050565b6000819050919050565b60007fffffffff0000000000000000000000000000000000000000000000000000000082169050919050565b600073ffffffffffffffffffffffffffffffffffffffff82169050919050565b6000819050919050565b600060ff82169050919050565b82818337600083830152505050565b60005b8381101561353657808201518184015260208101905061351b565b83811115613545576000848401525b50505050565b6000600282049050600182168061356357607f821691505b60208210811415613577576135766135b6565b5b50919050565b6000819050919050565b7f4e487b7100000000000000000000000000000000000000000000000000000000600052601160045260246000fd5b7f4e487b7100000000000000000000000000000000000000000000000000000000600052602260045260246000fd5b7f4e487b7100000000000000000000000000000000000000000000000000000000600052604160045260246000fd5b6000601f19601f8301169050919050565b61362e8161347e565b811461363957600080fd5b50565b61364581613490565b811461365057600080fd5b50565b61365c816134a6565b811461366757600080fd5b50565b613673816134f2565b811461367e57600080fd5b5056fea2646970667358221220ab40c031db6f56c00efd589cb9231ca5514050630199e6596aed49512a06f7b564736f6c63430008000033",
  "immutableReferences": {
    "2642": [
      {
        "length": 32,
        "start": 7675
      }
    ],
    "2644": [
      {
        "length": 32,
        "start": 7635
      }
    ],
    "2646": [
      {
        "length": 32,
        "start": 7751
      }
    ],
    "2648": [
      {
        "length": 32,
        "start": 7784
      }
    ],
    "2650": [
      {
        "length": 32,
        "start": 7718
      }
    ]
  },
  "source": "//SPDX-License-Identifier: Unlicense\npragma solidity ^0.8.0;\npragma abicoder v2; // required to accept structs as function parameters\n\nimport \"@openzeppelin/contracts/access/AccessControl.sol\";\nimport \"@openzeppelin/contracts/token/ERC721/ERC721.sol\";\nimport \"@openzeppelin/contracts/token/ERC721/extensions/ERC721URIStorage.sol\";\nimport \"@openzeppelin/contracts/utils/cryptography/ECDSA.sol\";\nimport \"@openzeppelin/contracts/utils/cryptography/draft-EIP712.sol\";\n\ncontract WebaverseNFT is ERC721URIStorage, EIP712 {\n    string private constant SIGNING_DOMAIN = \"Webaverse-voucher\";\n    string private constant SIGNATURE_VERSION = \"1\";\n    \n    // stores the incrementing nonces for the signers to prevent replay attacks\n    mapping(address => uint256) public nonces;\n    \n    // mapping to store the URIs of all the NFTs\n    mapping(uint256 => string) private _tokenURIs;\n\n    constructor()\n        ERC721(\"WebaverseNFT\", \"WVRS\")\n        EIP712(SIGNING_DOMAIN, SIGNATURE_VERSION) {}\n\n    /// @notice Represents an un-minted NFT, which has not yet been recorded into the blockchain. A signed voucher can be redeemed for a real NFT using the redeem function.\n    struct NFTVoucher {\n        // @notice The id of the token to be redeemed. Must be unique - if another token with this ID already exists, the redeem function will revert.\n        uint256 tokenId;\n        // @notice The minimum price (in wei) that the NFT creator is willing to accept for the initial sale of this NFT.\n        uint256 nonce;\n        // @notice The time period for which the voucher is valid\n        uint256 expiry;\n        // @notice the EIP-712 signature of all other fields in the NFTVoucher struct. For a voucher to be valid, it must be signed by an account with the MINTER_ROLE.\n        bytes signature;\n    }\n\n    function mint(\n        address account,\n        uint256 tokenId,\n        string memory cid\n    ) public {\n        _mint(account, tokenId);\n        _setURI(tokenId, cid);\n    }\n    \n\n    function tokenURI(uint256 tokenId)\n        public\n        view\n        virtual\n        override\n        returns (string memory)\n    {\n        require(_exists(tokenId), \"Query for non existent token\");\n        return _tokenURIs[tokenId];\n        \n    }\n\n    /// @notice Redeems an NFTVoucher for an actual NFT, creating it in the process.\n    /// @param claimer The address of the account which will receive the NFT upon success.\n    /// @param voucher A signed NFTVoucher that describes the NFT to be redeemed.\n    function claim(address claimer, NFTVoucher calldata voucher)\n        public\n        payable\n        returns (uint256)\n    {\n        // make sure signature is valid and get the address of the signer\n        address signer = _verify(voucher);\n\n        require(\n            signer == ownerOf(voucher.tokenId),\n            \"Authorization failed: Invalid signature\"\n        );\n        \n        require(block.timestamp <= voucher.expiry, \"Voucher has already expired\");\n        \n        require(voucher.nonce == nonces[signer], \"Invalid nonce value\");\n        // transfer the token to the claimer\n        _transfer(signer, claimer, voucher.tokenId);\n        nonces[signer] += 1;\n        return voucher.tokenId;\n    }\n\n    // Use the mapping _tokenURIs for storing the URIs of NFTs\n    function _setURI(uint256 tokenId, string memory cid) internal virtual {\n        require(\n            _exists(tokenId),\n            \"Setting URI for non-existent token not allowed\"\n        );\n        require(\n            bytes(_tokenURIs[tokenId]).length == 0,\n            \"This token's URI already exists\"\n        );\n        _tokenURIs[tokenId] = cid;\n    }\n\n    /// @notice Returns a hash of the given NFTVoucher, prepared using EIP712 typed data hashing rules.\n    /// @param voucher An NFTVoucher to hash.\n    function _hash(NFTVoucher calldata voucher)\n        internal\n        view\n        returns (bytes32)\n    {\n        return\n            _hashTypedDataV4(\n                keccak256(\n                    abi.encode(\n                        keccak256(\n                            \"NFTVoucher(uint256 tokenId,uint256 nonce,uint256 expiry)\"\n                        ),\n                        voucher.tokenId,\n                        voucher.nonce,\n                        voucher.expiry\n                    )\n                )\n            );\n    }\n\n    /// @notice Returns the chain id of the current blockchain.\n    /// @dev This is used to workaround an issue with ganache returning different values from the on-chain chainid() function and\n    ///  the eth_chainId RPC method. See https://github.com/protocol/nft-website/issues/121 for context.\n    function getChainID() external view returns (uint256) {\n        uint256 id;\n        assembly {\n            id := chainid()\n        }\n        return id;\n    }\n\n    /// @notice Verifies the signature for a given NFTVoucher, returning the address of the signer.\n    /// @dev Will revert if the signature is invalid. Does not verify that the signer is authorized to mint NFTs.\n    /// @param voucher An NFTVoucher describing an unminted NFT.\n    function _verify(NFTVoucher calldata voucher)\n        internal\n        view\n        returns (address)\n    {\n        bytes32 digest = _hash(voucher);\n        return ECDSA.recover(digest, voucher.signature);\n    }\n\n    function supportsInterface(bytes4 interfaceId)\n        public\n        view\n        virtual\n        override(ERC721)\n        returns (bool)\n    {\n        return ERC721.supportsInterface(interfaceId);\n    }\n}",
  "sourcePath": "/home/saeed/Desktop/rarible/test/contracts/WebaverseNFT.sol",
  "compiler": {
    "name": "solc",
    "version": "0.8.0+commit.c7dfd78e.Emscripten.clang"
  },
  "schemaVersion": "3.3.4",
  "updatedAt": "2021-10-04T05:19:46.773Z",
  "networkType": "ethereum",
  "devdoc": {
    "kind": "dev",
    "methods": {
      "approve(address,uint256)": {
        "details": "See {IERC721-approve}."
      },
      "balanceOf(address)": {
        "details": "See {IERC721-balanceOf}."
      },
      "claim(address,(uint256,uint256,uint256,bytes))": {
        "params": {
          "claimer": "The address of the account which will receive the NFT upon success.",
          "voucher": "A signed NFTVoucher that describes the NFT to be redeemed."
        }
      },
      "getApproved(uint256)": {
        "details": "See {IERC721-getApproved}."
      },
      "getChainID()": {
        "details": "This is used to workaround an issue with ganache returning different values from the on-chain chainid() function and  the eth_chainId RPC method. See https://github.com/protocol/nft-website/issues/121 for context."
      },
      "isApprovedForAll(address,address)": {
        "details": "See {IERC721-isApprovedForAll}."
      },
      "name()": {
        "details": "See {IERC721Metadata-name}."
      },
      "ownerOf(uint256)": {
        "details": "See {IERC721-ownerOf}."
      },
      "safeTransferFrom(address,address,uint256)": {
        "details": "See {IERC721-safeTransferFrom}."
      },
      "safeTransferFrom(address,address,uint256,bytes)": {
        "details": "See {IERC721-safeTransferFrom}."
      },
      "setApprovalForAll(address,bool)": {
        "details": "See {IERC721-setApprovalForAll}."
      },
      "supportsInterface(bytes4)": {
        "details": "See {IERC165-supportsInterface}."
      },
      "symbol()": {
        "details": "See {IERC721Metadata-symbol}."
      },
      "tokenURI(uint256)": {
        "details": "See {IERC721Metadata-tokenURI}."
      },
      "transferFrom(address,address,uint256)": {
        "details": "See {IERC721-transferFrom}."
      }
    },
    "version": 1
  },
  "userdoc": {
    "kind": "user",
    "methods": {
      "claim(address,(uint256,uint256,uint256,bytes))": {
        "notice": "Redeems an NFTVoucher for an actual NFT, creating it in the process."
      },
      "getChainID()": {
        "notice": "Returns the chain id of the current blockchain."
      }
    },
    "version": 1
  }
}